:101D0000112484B714BE83FF04C090915E029F30FB
:101D100008F4282E8D7029F080E0F6D0E4E0FF274B
:101D2000099400D01F92CDB7DEB78EE0EDD0D29AE5
:101D3000812C912C23E0F22EEE24E39435E0D32E77
:101D40004EECC42ECDD0813479F4CAD08983E0D052
:101D50008981823811F482E005C0813811F486E06F
:101D600001C083E0AED0AAC0823411F484E103C084
:101D7000853419F485E0D4D0A1C0853541F4B0D0C4
:101D8000882EAED0912C982A880C991C96C0863546
:101D900021F484E0C5D080E0E5CF843609F057C057
:101DA0009FD09ED0B82E9CD0A82E00E610E080E6F2
:101DB000B80E96D0F80181938F01BE12FACFA8D049
:101DC00081149104F9F4909160009093E4002091C3
:101DD00061002093E500809168008093E600809187
:101DE00069008093E70030E0322F2227290F311D50
:101DF00024503109209368003093690010926000EC
:101E0000C0926100F5E4AF1201C0FFCFF401F7BE4C
:101E1000E89507B600FCFDCFA401A0E6B0E02C9148
:101E20001296CD010197FC01808130E0382BFA0138
:101E30000901E7BEE89511244E5F5F4FBA12EFCF5C
:101E4000F401D7BEE89507B600FCFDCF37C0843754
:101E500039F546D045D0B82E43D05AD08401B80CBD
:101E60000115110519F48091E40014C00130110529
:101E700019F48091E5000EC00830110519F4809125
:101E8000E60008C00930110519F48091E70002C08E
:101E9000F80184910F5F1F4F14D0B012E1CF0EC034
:101EA000853739F435D08EE10CD083E90AD08CE047
:101EB00059CF813511F488E027D02AD080E101D0B4
:101EC00041CF2AE030E08095089410F4DA9802C0FF
:101ED000DA9A000015D014D086952A95B1F70895A6
:101EE000A89529E030E0CB99FECF0AD009D008D0E0
:101EF0008894CB9908942A9511F08795F7CF089587
:101F00009EE09A95F1F7089598E191BD81BD0895FD
:101F1000E7DF803219F088E0F7DFFFCF84E1D1CF2F
:0E1F2000CF93C82FDDDFC150E9F7CF91F1CF8D
:021FFE000206D9
:0400000300001D00DC
:00000001FF
