:020000021000EC
:10FC0000112484B714BE83FF04C09091FE219E3F4F
:10FC100008F4282E8D7029F080E009D1E0E0FF275C
:10FC2000099400D01F92CDB7DEB785E080938100A4
:10FC300082E08093300188E18093310186E08093F7
:10FC4000320181E0809334018EE0F1D08091040193
:10FC500081608093040126E080E39CEF41E0909373
:10FC600085008093840046BBB09BFECF309103019A
:10FC7000316030930301A895215089F7612C712CD4
:10FC8000DD24D39445E0C42E51E1B52EC4D0813497
:10FC9000D1F4C1D08983D1D08981823811F482E036
:10FCA00010C0813869F486E00CC0843709F480C044
:10FCB000853709F0A1C0C1D08EE1A6D087E9A4D0D4
:10FCC00083E0A2D09EC0823411F484E103C0853465
:10FCD00019F485E0BAD095C0853569F49CD0682EBA
:10FCE0009AD0712C782A872D881F8827881F8BBF70
:10FCF000660C771C85C0863521F484E0A6D080E0B0
:10FD0000E0CF843691F687D0082F10E0102F00271F
:10FD100082D0082B80D0A82E7801812C22E0922E50
:10FD20007AD0F40181934F01F1E0EF1AF108E11468
:10FD3000F104B1F782D085E4A81213C04801860C03
:10FD4000971C730100E012E0E814F90409F459C0AB
:10FD5000F80161918F01C70187D0FFEFEF1AFF0A09
:10FD6000F3CF83E0F30187BFE89507B600FCFDCF32
:10FD700020E030E0F901FE5F8081F901E60DF71D1A
:10FD8000D901AF5FBD4F4C9190E0942B0C01D7BED1
:10FD9000E89511242E5F3F4F0217130759F7F3011F
:10FDA000C7BEE89507B600FCFDCFB7BEE89529C0F1
:10FDB00032D0082F10E0102F00272DD0082B2BD089
:10FDC00089833BD089817301853461F4C70144D0B4
:10FDD0001BD001501109FFEFEF1AFF0A01151105A1
:10FDE000A9F70FC0F70187917F010ED001501109CB
:10FDF00001151105B9F705C0813511F488E017D058
:10FE00001CD080E101D042CF9091300195FFFCCF12
:10FE10008093360108958091300187FFFCCF809157
:10FE2000300184FD01C0A895809136010895E0E677
:10FE3000F0E098E1908380830895EDDF803219F03F
:10FE400088E0F5DFFFCF84E1DFCFCF93C82FE3DF7A
:10FE5000C150E9F7CF91F1CFF999FECF92BD81BDA5
:10FE6000F89A992780B50895262FF999FECF1FBAE1
:10FE700092BD81BD20BD0FB6F894FA9AF99A0FBED3
:04FE8000019608954A
:02FFFE000206F9
:040000031000FC00ED
:00000001FF
