:020000021000EC
:10FC0000112484B714BE83FF04C09091FE409E3F30
:10FC100008F4282E8D7029F080E002D1E0E0FF2763
:10FC2000099400D01F92CDB7DEB785E080938100A4
:10FC300082E08093C00088E18093C10086E08093D9
:10FC4000C20080E18093C4008EE0EAD0209A26E0D2
:10FC500080E39CEF31E0909385008093840036BB75
:10FC6000B09BFECF189AA8952150A9F7612C712C52
:10FC700043E0D42ECC24C39451E1B52EC5D08134B9
:10FC800079F4C2D08983D2D08981823811F482E09C
:10FC900005C0813811F486E001C083E0AED0AAC06F
:10FCA000823411F484E103C0853419F485E0C6D0B0
:10FCB000A1C0853569F4A8D0682EA6D0712C782A09
:10FCC000872D881F8827881F8BBF660C771C91C0E3
:10FCD000863521F484E0B2D080E0E0CF843609F0AC
:10FCE00055C092D0082F10E0102F00278DD0082B80
:10FCF0008BD0A82E7801812C9924939485D0F4017F
:10FD000081934F01F1E0EF1AF108E114F104B1F72A
:10FD10008DD085E4A81213C04801860C971C73018E
:10FD200000E011E0E814F90409F464C0F8016191FD
:10FD30008F01C70192D0FFEFEF1AFF0AF3CFF30153
:10FD4000D7BEE89507B600FCFDCF20E030E0F90112
:10FD5000F3958081F901E60DF71DD901AF5FBE4F24
:10FD60004C9190E0942B0C01C7BEE89511242E5FB6
:10FD70003F4F0217130759F785E0F30187BFE89556
:10FD800007B600FCFDCFB7BEE89534C0843721F537
:10FD90003BD0082F10E0102F002736D0082B34D08E
:10FDA000898344D089817301853461F4C7014DD0C2
:10FDB00024D001501109FFEFEF1AFF0A01151105B8
:10FDC000A9F718C0F70187917F0117D001501109D9
:10FDD00001151105B9F70EC0853739F427D08EE12A
:10FDE0000CD087E90AD085E059CF813511F488E03D
:10FDF00017D01CD080E101D041CF9091C00095FF79
:10FE0000FCCF8093C60008958091C00087FFFCCF8F
:10FE10008091C00084FD01C0A8958091C60008951E
:10FE2000E0E6F0E098E1908380830895EDDF803292
:10FE300019F088E0F5DFFFCF84E1DFCFCF93C82F43
:10FE4000E3DFC150E9F7CF91F1CFF999FECF92BD31
:10FE500081BDF89A992780B50895262FF999FECF8C
:10FE60001FBA92BD81BD20BD0FB6F894FA9AF99AD7
:06FE70000FBE019608958B
:02FFFE000206F9
:040000031000FC00ED
:00000001FF
