:101E0000112484B714BE83FF04C09091FE049F3058
:101E100008F4282E8D7029F080E0C9D0E0E0FF277B
:101E2000099400D01F92CDB7DEB785E08093810082
:101E300082E08093C00088E18093C10086E08093B7
:101E4000C20080E18093C4008EE0B1D0259A26E0E4
:101E500080E39CEF31E0909385008093840036BB53
:101E6000B09BFECF1D9AA8952150A9F7812C912CEB
:101E700093E0F92EEE24E39425E0D22E31E1C32E37
:101E80008AD0813479F487D0898397D08981823848
:101E900011F482E005C0813811F486E001C083E0CE
:101EA00073D06FC0823411F484E103C0853419F417
:101EB00085E08BD066C0853541F46DD0882E6BD01F
:101EC000912C982A880C991C5BC0863521F484E0FB
:101ED0007CD080E0E5CF843609F036C05CD05BD0A2
:101EE000B82E59D0A82E00E011E055D0F80181930A
:101EF0008F01BE12FACF61D0F5E4AF1201C0FFCF5F
:101F0000F401F7BEE89507B600FCFDCFB401A0E0F0
:101F1000B1E02C911296AD0141505109FA01808136
:101F200030E0382BFB010901E7BEE89511246E5F14
:101F30007F4FBA12EECFF401D7BEE89507B600FC8A
:101F4000FDCFC7BEE8951DC0843769F424D023D0E7
:101F5000B82E21D032D08401F80185918F0114D0A0
:101F6000BA94D1F70EC0853739F427D08EE10CD062
:101F700083E90AD08AE094CF813511F488E017D044
:101F80001CD080E101D07CCF9091C00095FFFCCFA8
:101F90008093C60008958091C00087FFFCCF809198
:101FA000C00084FD01C0A8958091C6000895E0E6B8
:101FB000F0E098E1908380830895EDDF803219F09E
:101FC00088E0F5DFFFCF84E1DFCFCF93C82FE3DFD9
:081FD000C150E9F7CF91F1CFF8
:021FFE000206D9
:0400000300001E00DB
:00000001FF
